:1000000025C1000042C1000040C100003EC1000007
:100010003CC100003AC1000038C1000036C10000F8
:1000200034C1000032C1000030C100002EC1000008
:100030002CC100002AC1000028C1000026C1000018
:1000400024C1000022C1000020C100001EC1000028
:100050001CC100001AC1000018C100006CC40000DF
:1000600014C1000012C1000010C100000EC1000048
:100070000CC100000AC1000008C1000006C1000058
:1000800004C1000002C1000000C10000FEC0000069
:10009000FCC00000FAC00000F8C00000F6C000007C
:1000A000F4C00000F2C00000F0C00000EEC000008C
:1000B000ECC00000EAC00000E8C00000E6C000009C
:1000C000E4C00000E2C00000E0C00000DEC00000AC
:1000D000DCC00000DAC00000D8C00000D6C00000BC
:1000E000D4C0000006030B0310031A0324039D036E
:1000F0002E0336033E03480352035C036B03750370
:100100009D037F0389039303BE03C103B003B403BC
:10011000BA03F803C503C903CF03D303D703DD0331
:10012000E103E503F803EB03EF03F30300000A0B1D
:1001300002090C0D0E080703040100000000000076
:1001400000000000000000000000000000000000AF
:10015000000000000000000012111000000000006C
:10016000000000000000000000000000000000008F
:1001700000000102102020080810204010204080BC
:10018000020102010804020101020408102040805B
:1001900080402010080402018004020180402010E9
:1001A0000804020108040201010204081020408032
:1001B0000102040810204080050505050705080810
:1001C0000808020202020A0A0808040404040101E1
:1001D00001010101010103030303030303030407F6
:1001E00007070C0C0C0C0C0C0C0C0202020206068D
:1001F0000606060606060B0B0B0B0B0B0B0B000083
:1002000020002300260029002C002F0032000001CE
:10021000000003010601090100002200250028005A
:100220002B002E00310034000201000005010801FE
:100230000B0100002100240027002A002D003000BF
:10024000330001010000040107010A0111241FBE4F
:10025000CFEFD1E2DEBFCDBF00E00CBF12E0A0E0E7
:10026000B2E0ECE7FEE000E00BBF02C007900D92A9
:10027000A031B107D9F722E0A0E1B2E001C01D92A0
:10028000A333B207E1F74CD3F7C5BACE61E08DE0F6
:10029000B0D261E08BE0ADD261E08CE0AAD261E047
:1002A0008AE0A7D260E080E0A4D260E081E0A1D241
:1002B00060E082E09ED260E083E09BD260E084E078
:1002C00098D260E085E095D260E086E092D260E06E
:1002D00087E08FC20F931F93CF93DF938C01EB01C5
:1002E00097FD08C061E08DE0BDD26FEF70E0601B4C
:1002F000710B07C060E08DE0B5D266277727601BE1
:10030000710B8CE060D1D7FD08C061E08BE0AAD210
:100310006FEF70E06C1B7D0B07C060E08BE0A2D23A
:10032000662777276C1B7D0B8AE0DF91CF911F91A9
:100330000F9149C1CF92DF92EF92FF920F931F93DB
:10034000CF93DF931092290210922802C8EED3E0D7
:100350008091280290912902883091050CF05DC0AF
:10036000C0902402D0902502E0902602F09027024F
:10037000AED200912802109129029C012C9FC0014D
:100380002D9F900D3C9F900D1124809FB001819F67
:10039000700D909F700D1124882777FD8095982F00
:1003A00076D49B01AC01C701B60172D360932402DD
:1003B000709325028093260290932702802F87D284
:1003C000E0902802F09029029C012E9DC0012F9DF3
:1003D000900D3E9D900D1124BC01882777FD8095DE
:1003E000982F55D49B01AC0160912002709121029D
:1003F00080912202909123024BD36093200270934C
:10040000210280932202909323023FEFE31AF30A22
:10041000F0922902E09228029BCF20912002309195
:100420002102409122025091230260912402709196
:10043000250280912602909127028ED360931C02A0
:1004400070931D0280931E0290931F026093180206
:100450007093190280931A0290931B02209110024C
:10046000309111028091140290911502820F931F16
:10047000909315028093140260910E0270910F0206
:10048000EB01C21BD30BD0931702C0931602893E17
:10049000934034F088EE93E0909315028093140219
:1004A000809114029091150288319C4F34F488E1B8
:1004B0009CEF9093150280931402882777FD809516
:1004C000982FE5D3209108023091090240910A0249
:1004D00050910B0268D46B017C01BE01882777FD27
:1004E0008095982FD4D32091040230910502409139
:1004F00006025091070257D49B01AC01C701B60117
:10050000C7D26B017C01609114027091150288279B
:1005100077FD8095982FBBD3209100023091010286
:1005200040910202509103023ED49B01AC01C701ED
:10053000B601AED279D37093130260931202209168
:100540000C0230910D022617370724F43093130262
:100550002093120288279927821B930B4091120245
:10056000509113024817590724F490931302809373
:100570001202809112029091130297FF04C0B901F8
:10058000820F931FA7DE20911202309113021216E0
:10059000130644F480910C0290910D02BC01621B81
:1005A000730B98DE80910E0290910F0290931102CE
:1005B00080931002DF91CF911F910F91FF90EF90E8
:1005C000DF90CF9008951F93CF93DF93182FEB0107
:1005D00061E00FD1209711F460E004C0CF3FD10556
:1005E00031F461E0812FDF91CF911F913BC1E12F69
:1005F000F0E0E45DFE4F449150E0FA013197E231C2
:10060000F10508F09AC0EE58FF4F30C484B58068F9
:1006100084BDC7BD97C084B5806284BDC8BD92C08B
:1006200080918000806880938000D0938900C0937F
:10063000880088C080918000806280938000D09381
:100640008B00C0938A007EC0809180008860809378
:100650008000D0938D00C0938C0074C08091B00056
:1006600080688093B000C093B3006CC08091B000EC
:1006700080628093B000C093B40064C08091900009
:10068000806880939000D0939900C09398005AC0DE
:1006900080919000806280939000D0939B00C093E3
:1006A0009A0050C080919000886080939000D09311
:1006B0009D00C0939C0046C08091A00080688093FC
:1006C000A0008091A0008F7B8093A000D093A90010
:1006D000C093A80037C08091A00080628093A000E2
:1006E000D093AB00C093AA002DC08091A000886079
:1006F0008093A000D093AD00C093AC0023C0809144
:100700002001806880932001D0932901C0932801A3
:1007100019C080912001806280932001D0932B0129
:10072000C0932A010FC0809120018860809320012E
:10073000D0932D01C0932C0105C0C038D1050CF019
:1007400050CF4ACFDF91CF911F91089590E0FC01E7
:100750003197E231F10508F04BC0EC57FF4F86C3EB
:10076000809180008F7703C0809180008F7D80937F
:100770008000089580918000877FF9CF84B58F77BE
:1007800002C084B58F7D84BD08958091B0008F77BD
:1007900003C08091B0008F7D8093B0000895809158
:1007A00090008F7707C0809190008F7D03C080916B
:1007B0009000877F8093900008958091A0008F77AC
:1007C00007C08091A0008F7D03C08091A000877F2B
:1007D0008093A0000895809120018F7707C08091B9
:1007E00020018F7D03C080912001877F80932001AD
:1007F0000895CF93DF9390E0FC01EE58FE4F2491D3
:10080000FC01E854FE4F8491882349F190E0880F61
:10081000991FFC01EE5CFD4FA591B491885E9D4F40
:10082000FC01C591D4919FB7611108C0F8948C91D7
:10083000209582238C93888182230AC0623051F4F0
:10084000F8948C91322F309583238C938881822B5E
:10085000888304C0F8948C91822B8C939FBFDF9186
:10086000CF9108950F931F93CF93DF931F92CDB72E
:10087000DEB7282F30E0F901E45DFE4F8491F901E5
:10088000EE58FE4F1491F901E854FE4F04910023F5
:10089000C1F0882319F0698359DF6981E02FF0E006
:1008A000EE0FFF1FE85EFD4FA591B4919FB7F8943E
:1008B0008C91611103C01095812301C0812B8C9311
:1008C0009FBF0F90DF91CF911F910F910895CF930C
:1008D000DF93282F30E0F901E45DFE4F8491F901A8
:1008E000EE58FE4FD491F901E854FE4FC491CC2349
:1008F00089F081112BDFEC2FF0E0EE0FFF1FE250AB
:10090000FE4FA591B4912C912D2381E090E021F42C
:1009100080E002C080E090E0DF91CF9108950895DB
:1009200054D0FDDFB3DCC0E0D0E004DD2097E9F374
:100930000E940000FACF1F920F920FB60F9211245F
:100940002F933F938F939F93AF93BF9380912B02ED
:1009500090912C02A0912D02B0912E0230912A028A
:1009600023E0230F2D3720F40196A11DB11D05C0F2
:1009700026E8230F0296A11DB11D20932A02809321
:100980002B0290932C02A0932D02B0932E02809103
:100990002F0290913002A0913102B0913202019663
:1009A000A11DB11D80932F0290933002A0933102BC
:1009B000B0933202BF91AF919F918F913F912F9150
:1009C0000F900FBE0F901F901895789484B5826099
:1009D00084BD84B5816084BD85B5826085BD85B5E3
:1009E000816085BDEEE6F0E0808181608083E1E892
:1009F000F0E01082808182608083808181608083CA
:100A0000E0E8F0E0808181608083E1EBF0E08081CC
:100A100084608083E0EBF0E0808181608083E1E9A5
:100A2000F0E0808182608083808181608083E0E962
:100A3000F0E0808181608083E1EAF0E08081826083
:100A40008083808181608083E0EAF0E08081816042
:100A50008083E1E2F1E08081826080838081816037
:100A60008083E0E2F1E0808181608083EAE7F0E06A
:100A700080818460808380818260808380818160C6
:100A800080838081806880831092C10008955058CF
:100A9000BB27AA270ED04DC13ED130F043D120F064
:100AA00031F49F3F11F41EF433C10EF4E095E7FBDF
:100AB00029C1E92F4FD180F3BA1762077307840762
:100AC000950718F071F49EF567C10EF4E0950B2EB2
:100AD000BA2FA02D0B01B90190010C01CA01A00190
:100AE0001124FF27591B99F0593F50F4503E68F1EB
:100AF0001A16F040A22F232F342F4427585FF3CF2C
:100B0000469537952795A795F0405395C9F77EF4FC
:100B10001F16BA0B620B730B840BBAF09150A1F045
:100B2000FF0FBB1F661F771F881FC2F70EC0BA0FCB
:100B3000621F731F841F48F4879577956795B79553
:100B4000F7959E3F08F0B3CF9395880F08F099274B
:100B5000EE0F9795879508950CD0EBC0E3D040F049
:100B6000DAD030F021F45F3F19F0CCC0511115C13B
:100B7000CFC0F0D098F39923C9F35523B1F3951B57
:100B8000550BBB27AA2762177307840738F09F5FAE
:100B90005F4F220F331F441FAA1FA9F333D00E2E1D
:100BA0003AF0E0E830D091505040E695001CCAF78A
:100BB00029D0FE2F27D0660F771F881FBB1F26174F
:100BC00037074807AB07B0E809F0BB0B802DBF0122
:100BD000FF2793585F4F2AF09E3F510568F092C05F
:100BE000DCC05F3FECF3983EDCF386957795679524
:100BF000B795F7959F5FC9F7880F911D96958795D3
:100C000097F90895E1E0660F771F881FBB1F6217F1
:100C100073078407BA0720F0621B730B840BBA0BAF
:100C2000EE1F88F7E095089504D06894B111B5C01F
:100C3000089598D088F09F5790F0B92F9927B75111
:100C4000A0F0D1F0660F771F881F991F1AF0BA9590
:100C5000C9F712C0B13081F09FD0B1E008959CC0B7
:100C6000672F782F8827B85F39F0B93FCCF3869586
:100C700077956795B395D9F73EF4909580957095E3
:100C800061957F4F8F4F9F4F0895E89409C097FB60
:100C90003EF490958095709561957F4F8F4F9F4F53
:100CA0009923A9F0F92F96E9BB279395F695879597
:100CB00077956795B795F111F8CFFAF4BB0F11F45A
:100CC00060FF1BC06F5F7F4F8F4F9F4F16C0882301
:100CD00011F096E911C0772321F09EE8872F762F37
:100CE00005C0662371F096E8862F70E060E02AF078
:100CF0009A95660F771F881FDAF7880F9695879564
:100D000097F9089597F99F6780E870E060E008958B
:100D10009FEF80EC089500240A9416161706180613
:100D20000906089500240A941216130614060506EF
:100D30000895092E0394000C11F4882352F0BB0F80
:100D400040F4BF2B11F460FF04C06F5F7F4F8F4FE3
:100D50009F4F089557FD9058440F551F59F05F3F1E
:100D600071F04795880F97FB991F61F09F3F79F0CD
:100D700087950895121613061406551FF2CF46954F
:100D8000F1DF08C0161617061806991FF1CF8695D1
:100D90007105610508940895E894BB2766277727B5
:100DA000CB0197F908950BD0C4CFB5DF28F0BADF97
:100DB00018F0952309F0A6CFABCF1124EECFCADFF0
:100DC000A0F3959FD1F3950F50E0551F629FF0015E
:100DD000729FBB27F00DB11D639FAA27F00DB11DB7
:100DE000AA1F649F6627B00DA11D661F829F222740
:100DF000B00DA11D621F739FB00DA11D621F839FC7
:100E0000A00D611D221F749F3327A00D611D231F9C
:100E1000849F600D211D822F762F6A2F11249F57EA
:100E200050408AF0E1F088234AF0EE0FFF1FBB1F0D
:100E3000661F771F881F91505040A9F79E3F5105AC
:100E400070F060CFAACF5F3FECF3983EDCF386955D
:100E500077956795B795F795E7959F5FC1F7FE2B57
:100E6000880F911D9695879597F90895EE0FFF1FAE
:0C0E70000590F491E02D1994F894FFCF48
:100E7C006F12833A0000C0400000003F780002006F
:00000001FF
